{
  "_format": "hh-sol-artifact-1",
  "contractName": "EazePay",
  "sourceName": "contracts/EazePayToken.sol",
  "abi": [
    {
      "inputs": [
        {
          "internalType": "string",
          "name": "name",
          "type": "string"
        },
        {
          "internalType": "string",
          "name": "symbol",
          "type": "string"
        }
      ],
      "stateMutability": "nonpayable",
      "type": "constructor"
    },
    {
      "anonymous": false,
      "inputs": [
        {
          "indexed": true,
          "internalType": "address",
          "name": "owner",
          "type": "address"
        },
        {
          "indexed": true,
          "internalType": "address",
          "name": "spender",
          "type": "address"
        },
        {
          "indexed": false,
          "internalType": "uint256",
          "name": "value",
          "type": "uint256"
        }
      ],
      "name": "Approval",
      "type": "event"
    },
    {
      "anonymous": false,
      "inputs": [
        {
          "indexed": true,
          "internalType": "address",
          "name": "user",
          "type": "address"
        },
        {
          "indexed": false,
          "internalType": "string",
          "name": "currencySymbol",
          "type": "string"
        },
        {
          "indexed": false,
          "internalType": "uint256",
          "name": "amount",
          "type": "uint256"
        },
        {
          "indexed": false,
          "internalType": "uint256",
          "name": "tokens",
          "type": "uint256"
        }
      ],
      "name": "CurrencyWithdraw",
      "type": "event"
    },
    {
      "anonymous": false,
      "inputs": [
        {
          "indexed": true,
          "internalType": "address",
          "name": "from",
          "type": "address"
        },
        {
          "indexed": true,
          "internalType": "address",
          "name": "to",
          "type": "address"
        },
        {
          "indexed": false,
          "internalType": "uint256",
          "name": "value",
          "type": "uint256"
        }
      ],
      "name": "Transfer",
      "type": "event"
    },
    {
      "anonymous": false,
      "inputs": [
        {
          "indexed": true,
          "internalType": "address",
          "name": "user",
          "type": "address"
        },
        {
          "indexed": false,
          "internalType": "string",
          "name": "currencySymbol",
          "type": "string"
        },
        {
          "indexed": false,
          "internalType": "uint256",
          "name": "amount",
          "type": "uint256"
        }
      ],
      "name": "rechargedToken",
      "type": "event"
    },
    {
      "inputs": [
        {
          "internalType": "address",
          "name": "owner",
          "type": "address"
        },
        {
          "internalType": "address",
          "name": "spender",
          "type": "address"
        }
      ],
      "name": "allowance",
      "outputs": [
        {
          "internalType": "uint256",
          "name": "",
          "type": "uint256"
        }
      ],
      "stateMutability": "view",
      "type": "function"
    },
    {
      "inputs": [
        {
          "internalType": "address",
          "name": "spender",
          "type": "address"
        },
        {
          "internalType": "uint256",
          "name": "amount",
          "type": "uint256"
        }
      ],
      "name": "approve",
      "outputs": [
        {
          "internalType": "bool",
          "name": "",
          "type": "bool"
        }
      ],
      "stateMutability": "nonpayable",
      "type": "function"
    },
    {
      "inputs": [
        {
          "internalType": "address",
          "name": "account",
          "type": "address"
        }
      ],
      "name": "balanceOf",
      "outputs": [
        {
          "internalType": "uint256",
          "name": "",
          "type": "uint256"
        }
      ],
      "stateMutability": "view",
      "type": "function"
    },
    {
      "inputs": [
        {
          "internalType": "address",
          "name": "account",
          "type": "address"
        },
        {
          "internalType": "uint256",
          "name": "amount",
          "type": "uint256"
        }
      ],
      "name": "burn",
      "outputs": [],
      "stateMutability": "nonpayable",
      "type": "function"
    },
    {
      "inputs": [],
      "name": "controller",
      "outputs": [
        {
          "internalType": "address",
          "name": "",
          "type": "address"
        }
      ],
      "stateMutability": "view",
      "type": "function"
    },
    {
      "inputs": [
        {
          "internalType": "string",
          "name": "",
          "type": "string"
        }
      ],
      "name": "currencyPrices",
      "outputs": [
        {
          "internalType": "uint256",
          "name": "",
          "type": "uint256"
        }
      ],
      "stateMutability": "view",
      "type": "function"
    },
    {
      "inputs": [],
      "name": "decimals",
      "outputs": [
        {
          "internalType": "uint8",
          "name": "",
          "type": "uint8"
        }
      ],
      "stateMutability": "view",
      "type": "function"
    },
    {
      "inputs": [
        {
          "internalType": "address",
          "name": "spender",
          "type": "address"
        },
        {
          "internalType": "uint256",
          "name": "subtractedValue",
          "type": "uint256"
        }
      ],
      "name": "decreaseAllowance",
      "outputs": [
        {
          "internalType": "bool",
          "name": "",
          "type": "bool"
        }
      ],
      "stateMutability": "nonpayable",
      "type": "function"
    },
    {
      "inputs": [
        {
          "internalType": "address",
          "name": "spender",
          "type": "address"
        },
        {
          "internalType": "uint256",
          "name": "addedValue",
          "type": "uint256"
        }
      ],
      "name": "increaseAllowance",
      "outputs": [
        {
          "internalType": "bool",
          "name": "",
          "type": "bool"
        }
      ],
      "stateMutability": "nonpayable",
      "type": "function"
    },
    {
      "inputs": [
        {
          "internalType": "address",
          "name": "account",
          "type": "address"
        },
        {
          "internalType": "uint256",
          "name": "amount",
          "type": "uint256"
        }
      ],
      "name": "mint",
      "outputs": [],
      "stateMutability": "nonpayable",
      "type": "function"
    },
    {
      "inputs": [],
      "name": "name",
      "outputs": [
        {
          "internalType": "string",
          "name": "",
          "type": "string"
        }
      ],
      "stateMutability": "view",
      "type": "function"
    },
    {
      "inputs": [],
      "name": "owner",
      "outputs": [
        {
          "internalType": "address",
          "name": "",
          "type": "address"
        }
      ],
      "stateMutability": "view",
      "type": "function"
    },
    {
      "inputs": [
        {
          "internalType": "address",
          "name": "user",
          "type": "address"
        },
        {
          "internalType": "string",
          "name": "currencySymbol",
          "type": "string"
        },
        {
          "internalType": "uint256",
          "name": "amount",
          "type": "uint256"
        }
      ],
      "name": "recharge",
      "outputs": [],
      "stateMutability": "nonpayable",
      "type": "function"
    },
    {
      "inputs": [
        {
          "internalType": "address",
          "name": "newController",
          "type": "address"
        }
      ],
      "name": "setController",
      "outputs": [],
      "stateMutability": "nonpayable",
      "type": "function"
    },
    {
      "inputs": [
        {
          "internalType": "string",
          "name": "currencySymbol",
          "type": "string"
        },
        {
          "internalType": "uint256",
          "name": "price",
          "type": "uint256"
        }
      ],
      "name": "setCurrencyPrice",
      "outputs": [],
      "stateMutability": "nonpayable",
      "type": "function"
    },
    {
      "inputs": [],
      "name": "symbol",
      "outputs": [
        {
          "internalType": "string",
          "name": "",
          "type": "string"
        }
      ],
      "stateMutability": "view",
      "type": "function"
    },
    {
      "inputs": [],
      "name": "totalSupply",
      "outputs": [
        {
          "internalType": "uint256",
          "name": "",
          "type": "uint256"
        }
      ],
      "stateMutability": "view",
      "type": "function"
    },
    {
      "inputs": [
        {
          "internalType": "address",
          "name": "to",
          "type": "address"
        },
        {
          "internalType": "uint256",
          "name": "amount",
          "type": "uint256"
        }
      ],
      "name": "transfer",
      "outputs": [
        {
          "internalType": "bool",
          "name": "",
          "type": "bool"
        }
      ],
      "stateMutability": "nonpayable",
      "type": "function"
    },
    {
      "inputs": [
        {
          "internalType": "address",
          "name": "from",
          "type": "address"
        },
        {
          "internalType": "address",
          "name": "to",
          "type": "address"
        },
        {
          "internalType": "uint256",
          "name": "amount",
          "type": "uint256"
        }
      ],
      "name": "transferFrom",
      "outputs": [
        {
          "internalType": "bool",
          "name": "",
          "type": "bool"
        }
      ],
      "stateMutability": "nonpayable",
      "type": "function"
    },
    {
      "inputs": [
        {
          "internalType": "address",
          "name": "user",
          "type": "address"
        },
        {
          "internalType": "string",
          "name": "currencySymbol",
          "type": "string"
        },
        {
          "internalType": "uint256",
          "name": "amount",
          "type": "uint256"
        }
      ],
      "name": "withdraw",
      "outputs": [],
      "stateMutability": "nonpayable",
      "type": "function"
    }
  ],
  "bytecode": "0x60806040523480156200001157600080fd5b506040516200140938038062001409833981016040819052620000349162000146565b818160036200004483826200023f565b5060046200005382826200023f565b505060058054336001600160a01b03199182168117909255600680549091169091179055506200030b915050565b634e487b7160e01b600052604160045260246000fd5b600082601f830112620000a957600080fd5b81516001600160401b0380821115620000c657620000c662000081565b604051601f8301601f19908116603f01168101908282118183101715620000f157620000f162000081565b816040528381526020925086838588010111156200010e57600080fd5b600091505b8382101562000132578582018301518183018401529082019062000113565b600093810190920192909252949350505050565b600080604083850312156200015a57600080fd5b82516001600160401b03808211156200017257600080fd5b620001808683870162000097565b935060208501519150808211156200019757600080fd5b50620001a68582860162000097565b9150509250929050565b600181811c90821680620001c557607f821691505b602082108103620001e657634e487b7160e01b600052602260045260246000fd5b50919050565b601f8211156200023a57600081815260208120601f850160051c81016020861015620002155750805b601f850160051c820191505b81811015620002365782815560010162000221565b5050505b505050565b81516001600160401b038111156200025b576200025b62000081565b62000273816200026c8454620001b0565b84620001ec565b602080601f831160018114620002ab5760008415620002925750858301515b600019600386901b1c1916600185901b17855562000236565b600085815260208120601f198616915b82811015620002dc57888601518255948401946001909101908401620002bb565b5085821015620002fb5787850151600019600388901b60f8161c191681555b5050505050600190811b01905550565b6110ee806200031b6000396000f3fe608060405234801561001057600080fd5b506004361061012c5760003560e01c806370a08231116100ad578063a457c2d711610071578063a457c2d714610289578063a9059cbb1461029c578063d3dabb5e146102af578063dd62ed3e146102da578063f77c4791146102ed57600080fd5b806370a08231146102075780638da5cb5b1461023057806392eefe9b1461025b57806395d89b411461026e5780639dc29fac1461027657600080fd5b806323b872dd116100f457806323b872dd146101ac578063313ce567146101bf57806339509351146101ce57806340c10f19146101e1578063653d46f1146101f457600080fd5b806306fdde0314610131578063095ea7b31461014f5780630a7c74461461017257806318160ddd146101875780631f6eafc514610199575b600080fd5b610139610300565b6040516101469190610d27565b60405180910390f35b61016261015d366004610d5d565b610392565b6040519015158152602001610146565b610185610180366004610e2a565b6103ac565b005b6002545b604051908152602001610146565b6101856101a7366004610e6f565b61043e565b6101626101ba366004610ec6565b610573565b60405160128152602001610146565b6101626101dc366004610d5d565b610597565b6101856101ef366004610d5d565b6105b9565b610185610202366004610e6f565b6105f1565b61018b610215366004610f02565b6001600160a01b031660009081526020819052604090205490565b600654610243906001600160a01b031681565b6040516001600160a01b039091168152602001610146565b610185610269366004610f02565b610668565b6101396106b4565b610185610284366004610d5d565b6106c3565b610162610297366004610d5d565b6106f7565b6101626102aa366004610d5d565b610772565b61018b6102bd366004610f1d565b805160208183018101805160078252928201919093012091525481565b61018b6102e8366004610f5a565b610780565b600554610243906001600160a01b031681565b60606003805461030f90610f8d565b80601f016020809104026020016040519081016040528092919081815260200182805461033b90610f8d565b80156103885780601f1061035d57610100808354040283529160200191610388565b820191906000526020600020905b81548152906001019060200180831161036b57829003601f168201915b5050505050905090565b6000336103a08185856107ab565b60019150505b92915050565b6006546001600160a01b031633146104195760405162461bcd60e51b815260206004820152602560248201527f4f6e6c7920746865206f776e65722063616e2063616c6c20746869732066756e60448201526431ba34b7b760d91b60648201526084015b60405180910390fd5b8060078360405161042a9190610fc7565b908152604051908190036020019020555050565b60006007836040516104509190610fc7565b9081526020016040518091039020549050600081116104aa5760405162461bcd60e51b815260206004820152601660248201527510dd5c9c995b98de481b9bdd081cdd5c1c1bdc9d195960521b6044820152606401610410565b60006104b68383610ff9565b9050806104d8866001600160a01b031660009081526020819052604090205490565b101561051d5760405162461bcd60e51b8152602060048201526014602482015273496e73756666696369656e742062616c616e636560601b6044820152606401610410565b61052785826106c3565b846001600160a01b03167fd9ec5cccf53759c1d282a0d635788bc2c0619e764fa83ba495db6b97616b9ea585858460405161056493929190611010565b60405180910390a25050505050565b6000336105818582856108d0565b61058c85858561094a565b506001949350505050565b6000336103a08185856105aa8383610780565b6105b49190611035565b6107ab565b6005546001600160a01b031633146105e35760405162461bcd60e51b815260040161041090611048565b6105ed8282610aee565b5050565b60006007836040516106039190610fc7565b90815260405190819003602001902054905060006106218383610ff9565b905061062d85826105b9565b846001600160a01b03167faa68c3b3bef7b2edbe6c9fef8ae0d326617de547b955544e29265a7bf8607d818585604051610564929190611096565b6005546001600160a01b031633146106925760405162461bcd60e51b815260040161041090611048565b600580546001600160a01b0319166001600160a01b0392909216919091179055565b60606004805461030f90610f8d565b6005546001600160a01b031633146106ed5760405162461bcd60e51b815260040161041090611048565b6105ed8282610bad565b600033816107058286610780565b9050838110156107655760405162461bcd60e51b815260206004820152602560248201527f45524332303a2064656372656173656420616c6c6f77616e63652062656c6f77604482015264207a65726f60d81b6064820152608401610410565b61058c82868684036107ab565b6000336103a081858561094a565b6001600160a01b03918216600090815260016020908152604080832093909416825291909152205490565b6001600160a01b03831661080d5760405162461bcd60e51b8152602060048201526024808201527f45524332303a20617070726f76652066726f6d20746865207a65726f206164646044820152637265737360e01b6064820152608401610410565b6001600160a01b03821661086e5760405162461bcd60e51b815260206004820152602260248201527f45524332303a20617070726f766520746f20746865207a65726f206164647265604482015261737360f01b6064820152608401610410565b6001600160a01b0383811660008181526001602090815260408083209487168084529482529182902085905590518481527f8c5be1e5ebec7d5bd14f71427d1e84f3dd0314c0f7b2291e5b200ac8c7c3b92591015b60405180910390a3505050565b60006108dc8484610780565b9050600019811461094457818110156109375760405162461bcd60e51b815260206004820152601d60248201527f45524332303a20696e73756666696369656e7420616c6c6f77616e63650000006044820152606401610410565b61094484848484036107ab565b50505050565b6001600160a01b0383166109ae5760405162461bcd60e51b815260206004820152602560248201527f45524332303a207472616e736665722066726f6d20746865207a65726f206164604482015264647265737360d81b6064820152608401610410565b6001600160a01b038216610a105760405162461bcd60e51b815260206004820152602360248201527f45524332303a207472616e7366657220746f20746865207a65726f206164647260448201526265737360e81b6064820152608401610410565b6001600160a01b03831660009081526020819052604090205481811015610a885760405162461bcd60e51b815260206004820152602660248201527f45524332303a207472616e7366657220616d6f756e7420657863656564732062604482015265616c616e636560d01b6064820152608401610410565b6001600160a01b03848116600081815260208181526040808320878703905593871680835291849020805487019055925185815290927fddf252ad1be2c89b69c2b068fc378daa952ba7f163c4a11628f55a4df523b3ef910160405180910390a3610944565b6001600160a01b038216610b445760405162461bcd60e51b815260206004820152601f60248201527f45524332303a206d696e7420746f20746865207a65726f2061646472657373006044820152606401610410565b8060026000828254610b569190611035565b90915550506001600160a01b038216600081815260208181526040808320805486019055518481527fddf252ad1be2c89b69c2b068fc378daa952ba7f163c4a11628f55a4df523b3ef910160405180910390a35050565b6001600160a01b038216610c0d5760405162461bcd60e51b815260206004820152602160248201527f45524332303a206275726e2066726f6d20746865207a65726f206164647265736044820152607360f81b6064820152608401610410565b6001600160a01b03821660009081526020819052604090205481811015610c815760405162461bcd60e51b815260206004820152602260248201527f45524332303a206275726e20616d6f756e7420657863656564732062616c616e604482015261636560f01b6064820152608401610410565b6001600160a01b0383166000818152602081815260408083208686039055600280548790039055518581529192917fddf252ad1be2c89b69c2b068fc378daa952ba7f163c4a11628f55a4df523b3ef91016108c3565b60005b83811015610cf2578181015183820152602001610cda565b50506000910152565b60008151808452610d13816020860160208601610cd7565b601f01601f19169290920160200192915050565b602081526000610d3a6020830184610cfb565b9392505050565b80356001600160a01b0381168114610d5857600080fd5b919050565b60008060408385031215610d7057600080fd5b610d7983610d41565b946020939093013593505050565b634e487b7160e01b600052604160045260246000fd5b600082601f830112610dae57600080fd5b813567ffffffffffffffff80821115610dc957610dc9610d87565b604051601f8301601f19908116603f01168101908282118183101715610df157610df1610d87565b81604052838152866020858801011115610e0a57600080fd5b836020870160208301376000602085830101528094505050505092915050565b60008060408385031215610e3d57600080fd5b823567ffffffffffffffff811115610e5457600080fd5b610e6085828601610d9d565b95602094909401359450505050565b600080600060608486031215610e8457600080fd5b610e8d84610d41565b9250602084013567ffffffffffffffff811115610ea957600080fd5b610eb586828701610d9d565b925050604084013590509250925092565b600080600060608486031215610edb57600080fd5b610ee484610d41565b9250610ef260208501610d41565b9150604084013590509250925092565b600060208284031215610f1457600080fd5b610d3a82610d41565b600060208284031215610f2f57600080fd5b813567ffffffffffffffff811115610f4657600080fd5b610f5284828501610d9d565b949350505050565b60008060408385031215610f6d57600080fd5b610f7683610d41565b9150610f8460208401610d41565b90509250929050565b600181811c90821680610fa157607f821691505b602082108103610fc157634e487b7160e01b600052602260045260246000fd5b50919050565b60008251610fd9818460208701610cd7565b9190910192915050565b634e487b7160e01b600052601160045260246000fd5b80820281158282048414176103a6576103a6610fe3565b6060815260006110236060830186610cfb565b60208301949094525060400152919050565b808201808211156103a6576103a6610fe3565b6020808252602e908201527f4f6e6c792074686520636f6e74726f6c6c65722063616e20706572666f726d2060408201526d3a3434b99037b832b930ba34b7b760911b606082015260800190565b6040815260006110a96040830185610cfb565b9050826020830152939250505056fea264697066735822122067d90733a53801c872e6f064735823ffa36c4053f49f96774320203403a30b1564736f6c63430008130033",
  "linkReferences": {},
  "deployedLinkReferences": {}
}